:100000000C9434000C943E000C943E000C943E0082
:100010000C943E000C943E000C943E000C943E0068
:100020000C943E000C943E000C943E000C943E0058
:100030000C943E000C943E000C943E000C943E0048
:100040000C943E000C943E000C943E000C943E0038
:100050000C943E000C943E000C943E000C943E0028
:100060000C943E000C943E0011241FBECFEFD8E04C
:10007000DEBFCDBF0E944D000C9454000C940000D4
:1000800081E085B92FEF83ED90E3215080409040CF
:10009000E1F700C0000015B808958FEF84B90E9401
:0C00A000400080E090E00895F894FFCF4D
:00000001FF
